{
  "_format": "hh-sol-artifact-1",
  "contractName": "Attendance",
  "sourceName": "contracts/Attendance.sol",
  "abi": [
    {
      "anonymous": false,
      "inputs": [
        {
          "indexed": false,
          "internalType": "uint256",
          "name": "sessionId",
          "type": "uint256"
        },
        {
          "indexed": false,
          "internalType": "string",
          "name": "name",
          "type": "string"
        },
        {
          "indexed": false,
          "internalType": "address",
          "name": "instructor",
          "type": "address"
        }
      ],
      "name": "SessionCreated",
      "type": "event"
    },
    {
      "anonymous": false,
      "inputs": [
        {
          "indexed": false,
          "internalType": "uint256",
          "name": "sessionId",
          "type": "uint256"
        },
        {
          "indexed": false,
          "internalType": "address",
          "name": "student",
          "type": "address"
        }
      ],
      "name": "StudentCheckedIn",
      "type": "event"
    },
    {
      "anonymous": false,
      "inputs": [
        {
          "indexed": false,
          "internalType": "uint256",
          "name": "sessionId",
          "type": "uint256"
        },
        {
          "indexed": false,
          "internalType": "address",
          "name": "student",
          "type": "address"
        }
      ],
      "name": "StudentRegistered",
      "type": "event"
    },
    {
      "inputs": [
        {
          "internalType": "uint256",
          "name": "",
          "type": "uint256"
        },
        {
          "internalType": "address",
          "name": "",
          "type": "address"
        }
      ],
      "name": "attendance",
      "outputs": [
        {
          "internalType": "bool",
          "name": "",
          "type": "bool"
        }
      ],
      "stateMutability": "view",
      "type": "function"
    },
    {
      "inputs": [
        {
          "internalType": "uint256",
          "name": "sessionId",
          "type": "uint256"
        }
      ],
      "name": "checkIn",
      "outputs": [],
      "stateMutability": "nonpayable",
      "type": "function"
    },
    {
      "inputs": [
        {
          "internalType": "string",
          "name": "name",
          "type": "string"
        }
      ],
      "name": "createSession",
      "outputs": [
        {
          "internalType": "uint256",
          "name": "sessionId",
          "type": "uint256"
        }
      ],
      "stateMutability": "nonpayable",
      "type": "function"
    },
    {
      "inputs": [
        {
          "internalType": "uint256",
          "name": "sessionId",
          "type": "uint256"
        },
        {
          "internalType": "address",
          "name": "student",
          "type": "address"
        }
      ],
      "name": "hasCheckedIn",
      "outputs": [
        {
          "internalType": "bool",
          "name": "",
          "type": "bool"
        }
      ],
      "stateMutability": "view",
      "type": "function"
    },
    {
      "inputs": [
        {
          "internalType": "uint256",
          "name": "sessionId",
          "type": "uint256"
        },
        {
          "internalType": "address",
          "name": "student",
          "type": "address"
        }
      ],
      "name": "isRegistered",
      "outputs": [
        {
          "internalType": "bool",
          "name": "",
          "type": "bool"
        }
      ],
      "stateMutability": "view",
      "type": "function"
    },
    {
      "inputs": [
        {
          "internalType": "uint256",
          "name": "sessionId",
          "type": "uint256"
        }
      ],
      "name": "register",
      "outputs": [],
      "stateMutability": "nonpayable",
      "type": "function"
    },
    {
      "inputs": [
        {
          "internalType": "uint256",
          "name": "",
          "type": "uint256"
        },
        {
          "internalType": "address",
          "name": "",
          "type": "address"
        }
      ],
      "name": "registered",
      "outputs": [
        {
          "internalType": "bool",
          "name": "",
          "type": "bool"
        }
      ],
      "stateMutability": "view",
      "type": "function"
    },
    {
      "inputs": [],
      "name": "sessionCount",
      "outputs": [
        {
          "internalType": "uint256",
          "name": "",
          "type": "uint256"
        }
      ],
      "stateMutability": "view",
      "type": "function"
    },
    {
      "inputs": [
        {
          "internalType": "uint256",
          "name": "",
          "type": "uint256"
        }
      ],
      "name": "sessions",
      "outputs": [
        {
          "internalType": "string",
          "name": "name",
          "type": "string"
        },
        {
          "internalType": "uint256",
          "name": "timestamp",
          "type": "uint256"
        },
        {
          "internalType": "address",
          "name": "instructor",
          "type": "address"
        },
        {
          "internalType": "uint256",
          "name": "totalStudents",
          "type": "uint256"
        },
        {
          "internalType": "uint256",
          "name": "attendanceCount",
          "type": "uint256"
        }
      ],
      "stateMutability": "view",
      "type": "function"
    }
  ],
  "bytecode": "0x6080604052348015600f57600080fd5b506111f18061001f6000396000f3fe608060405234801561001057600080fd5b50600436106100935760003560e01c806383c4b7a31161006657806383c4b7a3146101465780638c817b6e1461017a578063b81f6e18146101aa578063e95a644f146101da578063f207564e146101f657610093565b8063100bff201461009857806312abb5bb146100c857806373cd8336146100f85780637d042ddd14610116575b600080fd5b6100b260048036038101906100ad9190610977565b610212565b6040516100bf91906109d2565b60405180910390f35b6100e260048036038101906100dd9190610b33565b610241565b6040516100ef9190610b8b565b60405180910390f35b610100610371565b60405161010d9190610b8b565b60405180910390f35b610130600480360381019061012b9190610977565b610377565b60405161013d91906109d2565b60405180910390f35b610160600480360381019061015b9190610ba6565b6103df565b604051610171959493929190610c61565b60405180910390f35b610194600480360381019061018f9190610977565b6104bd565b6040516101a191906109d2565b60405180910390f35b6101c460048036038101906101bf9190610977565b6104ec565b6040516101d191906109d2565b60405180910390f35b6101f460048036038101906101ef9190610ba6565b610554565b005b610210600480360381019061020b9190610ba6565b610760565b005b60036020528160005260406000206020528060005260406000206000915091509054906101000a900460ff1681565b6000805490506040518060a001604052808381526020014281526020013373ffffffffffffffffffffffffffffffffffffffff168152602001600081526020016000815250600160008054815260200190815260200160002060008201518160000190816102af9190610ec7565b506020820151816001015560408201518160020160006101000a81548173ffffffffffffffffffffffffffffffffffffffff021916908373ffffffffffffffffffffffffffffffffffffffff16021790555060608201518160030155608082015181600401559050507f0f40fee1a48c231d63cdb810402c13105b64f25877e9018ec9c26d862be056cc600054833360405161034d93929190610f99565b60405180910390a160008081548092919061036790611006565b9190505550919050565b60005481565b60006003600084815260200190815260200160002060008373ffffffffffffffffffffffffffffffffffffffff1673ffffffffffffffffffffffffffffffffffffffff16815260200190815260200160002060009054906101000a900460ff16905092915050565b600160205280600052604060002060009150905080600001805461040290610cea565b80601f016020809104026020016040519081016040528092919081815260200182805461042e90610cea565b801561047b5780601f106104505761010080835404028352916020019161047b565b820191906000526020600020905b81548152906001019060200180831161045e57829003601f168201915b5050505050908060010154908060020160009054906101000a900473ffffffffffffffffffffffffffffffffffffffff16908060030154908060040154905085565b60026020528160005260406000206020528060005260406000206000915091509054906101000a900460ff1681565b60006002600084815260200190815260200160002060008373ffffffffffffffffffffffffffffffffffffffff1673ffffffffffffffffffffffffffffffffffffffff16815260200190815260200160002060009054906101000a900460ff16905092915050565b6002600082815260200190815260200160002060003373ffffffffffffffffffffffffffffffffffffffff1673ffffffffffffffffffffffffffffffffffffffff16815260200190815260200160002060009054906101000a900460ff166105f1576040517f08c379a00000000000000000000000000000000000000000000000000000000081526004016105e89061109a565b60405180910390fd5b6003600082815260200190815260200160002060003373ffffffffffffffffffffffffffffffffffffffff1673ffffffffffffffffffffffffffffffffffffffff16815260200190815260200160002060009054906101000a900460ff161561068f576040517f08c379a000000000000000000000000000000000000000000000000000000000815260040161068690611106565b60405180910390fd5b60016003600083815260200190815260200160002060003373ffffffffffffffffffffffffffffffffffffffff1673ffffffffffffffffffffffffffffffffffffffff16815260200190815260200160002060006101000a81548160ff02191690831515021790555060016000828152602001908152602001600020600401600081548092919061071f90611006565b91905055507fa7b2f5e65a66c7bc40c4302af6c12cbe645cd1f4939db5ce72d2d828e1c40fda8133604051610755929190611126565b60405180910390a150565b6002600082815260200190815260200160002060003373ffffffffffffffffffffffffffffffffffffffff1673ffffffffffffffffffffffffffffffffffffffff16815260200190815260200160002060009054906101000a900460ff16156107fe576040517f08c379a00000000000000000000000000000000000000000000000000000000081526004016107f59061119b565b60405180910390fd5b60016002600083815260200190815260200160002060003373ffffffffffffffffffffffffffffffffffffffff1673ffffffffffffffffffffffffffffffffffffffff16815260200190815260200160002060006101000a81548160ff02191690831515021790555060016000828152602001908152602001600020600301600081548092919061088e90611006565b91905055507fc65c83424b9743cd85950d4d05ef8ab686409eafe1bf490c528b98f4eb80004881336040516108c4929190611126565b60405180910390a150565b6000604051905090565b600080fd5b600080fd5b6000819050919050565b6108f6816108e3565b811461090157600080fd5b50565b600081359050610913816108ed565b92915050565b600073ffffffffffffffffffffffffffffffffffffffff82169050919050565b600061094482610919565b9050919050565b61095481610939565b811461095f57600080fd5b50565b6000813590506109718161094b565b92915050565b6000806040838503121561098e5761098d6108d9565b5b600061099c85828601610904565b92505060206109ad85828601610962565b9150509250929050565b60008115159050919050565b6109cc816109b7565b82525050565b60006020820190506109e760008301846109c3565b92915050565b600080fd5b600080fd5b6000601f19601f8301169050919050565b7f4e487b7100000000000000000000000000000000000000000000000000000000600052604160045260246000fd5b610a40826109f7565b810181811067ffffffffffffffff82111715610a5f57610a5e610a08565b5b80604052505050565b6000610a726108cf565b9050610a7e8282610a37565b919050565b600067ffffffffffffffff821115610a9e57610a9d610a08565b5b610aa7826109f7565b9050602081019050919050565b82818337600083830152505050565b6000610ad6610ad184610a83565b610a68565b905082815260208101848484011115610af257610af16109f2565b5b610afd848285610ab4565b509392505050565b600082601f830112610b1a57610b196109ed565b5b8135610b2a848260208601610ac3565b91505092915050565b600060208284031215610b4957610b486108d9565b5b600082013567ffffffffffffffff811115610b6757610b666108de565b5b610b7384828501610b05565b91505092915050565b610b85816108e3565b82525050565b6000602082019050610ba06000830184610b7c565b92915050565b600060208284031215610bbc57610bbb6108d9565b5b6000610bca84828501610904565b91505092915050565b600081519050919050565b600082825260208201905092915050565b60005b83811015610c0d578082015181840152602081019050610bf2565b60008484015250505050565b6000610c2482610bd3565b610c2e8185610bde565b9350610c3e818560208601610bef565b610c47816109f7565b840191505092915050565b610c5b81610939565b82525050565b600060a0820190508181036000830152610c7b8188610c19565b9050610c8a6020830187610b7c565b610c976040830186610c52565b610ca46060830185610b7c565b610cb16080830184610b7c565b9695505050505050565b7f4e487b7100000000000000000000000000000000000000000000000000000000600052602260045260246000fd5b60006002820490506001821680610d0257607f821691505b602082108103610d1557610d14610cbb565b5b50919050565b60008190508160005260206000209050919050565b60006020601f8301049050919050565b600082821b905092915050565b600060088302610d7d7fffffffffffffffffffffffffffffffffffffffffffffffffffffffffffffffff82610d40565b610d878683610d40565b95508019841693508086168417925050509392505050565b6000819050919050565b6000610dc4610dbf610dba846108e3565b610d9f565b6108e3565b9050919050565b6000819050919050565b610dde83610da9565b610df2610dea82610dcb565b848454610d4d565b825550505050565b600090565b610e07610dfa565b610e12818484610dd5565b505050565b5b81811015610e3657610e2b600082610dff565b600181019050610e18565b5050565b601f821115610e7b57610e4c81610d1b565b610e5584610d30565b81016020851015610e64578190505b610e78610e7085610d30565b830182610e17565b50505b505050565b600082821c905092915050565b6000610e9e60001984600802610e80565b1980831691505092915050565b6000610eb78383610e8d565b9150826002028217905092915050565b610ed082610bd3565b67ffffffffffffffff811115610ee957610ee8610a08565b5b610ef38254610cea565b610efe828285610e3a565b600060209050601f831160018114610f315760008415610f1f578287015190505b610f298582610eab565b865550610f91565b601f198416610f3f86610d1b565b60005b82811015610f6757848901518255600182019150602085019450602081019050610f42565b86831015610f845784890151610f80601f891682610e8d565b8355505b6001600288020188555050505b505050505050565b6000606082019050610fae6000830186610b7c565b8181036020830152610fc08185610c19565b9050610fcf6040830184610c52565b949350505050565b7f4e487b7100000000000000000000000000000000000000000000000000000000600052601160045260246000fd5b6000611011826108e3565b91507fffffffffffffffffffffffffffffffffffffffffffffffffffffffffffffffff820361104357611042610fd7565b5b600182019050919050565b7f4e6f742072656769737465726564000000000000000000000000000000000000600082015250565b6000611084600e83610bde565b915061108f8261104e565b602082019050919050565b600060208201905081810360008301526110b381611077565b9050919050565b7f416c726561647920636865636b656420696e0000000000000000000000000000600082015250565b60006110f0601283610bde565b91506110fb826110ba565b602082019050919050565b6000602082019050818103600083015261111f816110e3565b9050919050565b600060408201905061113b6000830185610b7c565b6111486020830184610c52565b9392505050565b7f416c726561647920726567697374657265640000000000000000000000000000600082015250565b6000611185601283610bde565b91506111908261114f565b602082019050919050565b600060208201905081810360008301526111b481611178565b905091905056fea2646970667358221220f463b97b1d545dbae864fc292b98f24438e547cc5317276e296d0cba0d1b7c5e64736f6c634300081c0033",
  "linkReferences": {},
  "deployedLinkReferences": {}
}